:1000000000F00320055F02001D5102001D51020097
:100010001D5102001D5102001D5102001D51020020
:100020001D5102001D5102001D5102001D51020010
:0C0030001D5102001D51020027060100B6
:10003C002DE9F04F99B0054680780224532800F240
:10004C00D185DFE810F05400DC0235025A03750349
:10005C008D02EA020C03A003CF0592036D019C02F2
:10006C00CF05CF05CF05CF05CF05CF05CF05CF05E4
:10007C00CF05CF05CF05CF05CF05CF05CF05CF05D4
:10008C00CF05CF05CF05F401350128033403E50373
:10009C00AF03F60019021A040E01CF05CF05CF05E8
:1000AC00CF05CF05CF05DE015701A80241015D0444
:1000BC004C0499014402CF05CF05CF05CF05CF05E0
:1000CC00CF05460379027B04CF058E01C903720468
:1000DC00D6008603C600BB00BE01BE02F403990025
:1000EC00E3001B03690387043E03B700A200EC1C6A
:1000FC00E97A2A7B002320461DF052FE8DF8180069
:10010C0006AB65200021012223F078F9DFF8280BDB
:10011C000078012800F2658520462AF0AFFF002800
:10012C0000F05F8505460079012840F05A852AF0D9
:10013C000BFD00274FF400018DF84B008DF84400A7
:10014C00000ACDF846108DF84D708DF84A708DF878
:10015C004C008DF8450011AE214606F10A002BF03B
:10016C0017F8297815223346017069788770417029
:10017C004520FF2100F033BD29F0F6FD8DF8440039
:10018C0011AB65204C2100F029BD00208DF84400F6
:10019C00E87841B2B1F1FF3F07DC10F07F00DFF8E7
:1001AC00941A18BF012081F8680011AB6520532107
:1001BC0000F014BD21F052FA00F013BDE8780024D1
:1001CC008DF8444024F0C8FD11AB6520472100F0A8
:1001DC006FBCEC782AF07FFF0146204623F0CEFA64
:1001EC00B0FA80F0472140098DF8440011AB00F0C3
:1001FC006FBC2AF079FF6979AA790EF05FF88DF857
:10020C00440011AB6520452100F0E8BCE878297961
:10021C008DF8441011A9032800F0C884022800F0BE
:10022C00BF84012840F0C984522023F0D5FF00F090
:10023C00C7BCE81C042127F03FFAE9792BF01FF822
:10024C00DFF8101A8DF8440002202AF00DF8DFF8C0
:10025C00081A03202AF008F811AB6520262100F0BB
:10026C00BDBC0226E81C8DF84C602AF0E2FF2AF097
:10027C001CFEED79044611A8002321462A4629F0DC
:10028C00B3F92AF0BBFC0ED1DFF8A8098DF84C604D
:10029C0021462A460023C08AADF8440011A829F053
:1002AC00A3F98DF8180006AB6520292100F096BC47
:1002BC002AF08CFC2AF08CFB2AF032FA40F0768380
:1002CC0006A82AF065FF76E32AF080FC2AF0CAFD26
:1002DC00332201238DF838000EA8CDE90004DFF895
:1002EC006C0911A922F040F88DF8180006AB6520B6
:1002FC003321DDE32AF06AFC2AF0B4FD312201231C
:10030C008DF838000EA8CDE90004DFF8400911A9DA
:10031C0022F02AF88DF8180006AB65203121C7E3CE
:10032C0002208DF820002AF0DFFEADF81800681DC1
:10033C002AF07FFFEA79064605F108018DF8442082
:10034C0011AF781C2AF0FCF906A831463A46002376
:10035C00002421F041FA8DF838000EAB65200B21FA
:10036C00A6E32AF0C1FE2AF082FD8DF8440011AB01
:10037C006520422100F032BC2C4614F8030B0428F3
:10038C001ABFE8782C1D02208DF84C0020462AF06C
:10039C0050FFDFF8B468A5780121E278ADF844008D
:1003AC0000230024317011A829461FF03FFC8DF862
:1003BC0018002846347028F02DFD06AB6520362138
:1003CC0076E3E87811AC214628F084F80746400023
:1003DC000130C6B230462AF030FF002800F073839B
:1003EC00054607700020874200F0D88214F81010E0
:1003FC0005EB4002517004EB4001013049789170DB
:10040C00F1E72AF0E3FBADF84400681D042127F066
:10041C0053F96A7AAB7A00240146009411A826F0AD
:10042C005FFE8DF8180006AB6520302140E30020FC
:10043C00DFF82C482AF0BEFAADF83800681DA0474A
:10044C00814695F80FA005F11000A04795F812B061
:10045C00074605F11304BBF10F0F00F2BA8211AE7F
:10046C005D46002D00F0B88220462AF0E2FE26F808
:10047C00020B013D0234F4E72AF02DFE044605F18F
:10048C000E002AF0D6FE297C6A7C0346E878CDE97A
:10049C000012AA1D214626F0F7FDDFF8B4178DF8DF
:1004AC004400042029F0E0FE11AB6520272195E3E0
:1004BC002AF08CFB2AF0F9FC014611A802222AF042
:1004CC00A5FD8DF8180006AB65200221F0E22AF09C
:1004DC000BFEADF84400687904218DF84C00A81D82
:1004EC0027F0EAF80446AE7AEF7A05F10C002AF010
:1004FC00A0FEDFF840870546214632463B462AF0EF
:10050C0044FA11A821F00CFF2AF078FB10D102203C
:10051C00214632463B468DF84C00B8F81600ADF833
:10052C0044002AF032FA11A821F0FAFE8DF81800D6
:10053C0006AB6520372151E36C782AF0D5FD0146D6
:10054C00DFF80007007822F08FFB8DF8440004F0F0
:10055C00E000202840F0458311AB65203F213DE3AE
:10056C002AF034FB2AF0A1FC014611A805222AF03E
:10057C004DFD8DF8180006AB6520052198E22AF098
:10058C00B3FD0021002423F079F88DF8440011AB61
:10059C0065200C218CE22AF019FB2AF063FC322234
:1005AC0001238DF838000EA8CDE90004DFF89C0675
:1005BC0011A921F0D9FE8DF8180006AB6520322167
:1005CC0076E211AC132120462AF02CFDEE782AF0AD
:1005DC0082FD0146304627F04BFB002800F07A8262
:1005EC000021231D8DF844100188ADF84510C11C65
:1005FC00827818468DF847202AF0A2F86DE22AF08E
:10060C0073FD6979AA790023002425F0A9FF8DF8E0
:10061C00440011AB652001214AE20020DFF840467E
:10062C002AF0C8F9ADF83800681DA0478046E81DCF
:10063C00A04795F809A0814605F10A07BAF1100FF9
:10064C0000F2F78111AC5546002D00F0F5813846CB
:10065C002AF0EFFD24F8020B013D0237F4E72AF0F3
:10066C00B5FA2AF022FC014611A810222AF0CEFC81
:10067C008DF8180006AB6520072119E22AF034FD2D
:10068C0069790246A81D1BF0F3FA8DF8440011ABF2
:10069C0065204E21A2E22AF099FA2AF099F92AF063
:1006AC003FF840F0F38106A82AF072FDF3E12AF03E
:1006BC001BFD2AF0DCFB8DF8440011AB65202321D7
:1006CC008CE2DFF874050078002800F00B82122011
:1006DC0014E26C782AF008FD0146DFF86805007812
:1006EC0021F054F88DF8440004F0E000202840F08C
:1006FC00788211AB65203E2170E22AF067FA2AF06D
:10070C00D4FB014611A803222AF080FC8DF81800B6
:10071C0006AB65200321CBE12AF0E6FC01466879A3
:10072C0019F014FE8DF8440011AB65204F2155E2F1
:10073C002AF04CFA2AF0B9FBEA79014611A80023F9
:10074C00002427F091FE8DF8180006AB65200421DB
:10075C00AEE12AF0C9FC6979AA791AF001FD8DF88D
:10076C00440011AB6520462138E22AF0BDFC6A7BBF
:10077C00691D0023002423F099FC8DF8440011AB73
:10078C0065200A2194E12AF021FA2AF08EFB014619
:10079C0011A811222AF03AFC8DF8180006AB65203E
:1007AC00082185E16879EE1CFE280BD1A879FF2879
:1007BC0008D12878082805D330462AF03AFD31466E
:1007CC0026F026F911A9304629F0CEF8002800F0C1
:1007DC009B8105460024A9E1002006908DF8490074
:1007EC00CDF84500E81C06A927F050FE8DF8440012
:1007FC00069840B10188ADF845104188ADF8471016
:10080C0000798DF8490011AB652043210622E6E101
:10081C00DFF82414C8208DF81800E81C097800298A
:10082C0000F0928129F000FC8DF81800B4E1002052
:10083C00EC78CDF85200CDF84E00CDF84A00CDF84A
:10084C0046002AF048FCADF84400A8790F2802466F
:10085C0028BF0F228DF8462020B111A8E91D0330C6
:10086C0029F06EFF11A9204601221DF0CBFA8DF85C
:10087C00180006AB65204B21B0E14FF00208E81CD4
:10088C008DF84C802AF0D5FCADF8440068798DF8D1
:10089C003800A81D2AF0CDFC2E7A04460027093515
:1008AC00CDE900570EA811A92246334621F05CFD74
:1008BC002AF0A4F90FD1DF488DF84C80CDE9005710
:1008CC0022463346C08AADF844000EA811A921F087
:1008DC004BFD8DF8180006AB652028217EE12AF02F
:1008EC0075F96A7BADF84400691D11A8002300243A
:1008FC0027F082F98DF8180006AB65203521D7E07A
:10090C002AF064F9ADF84400687B0024691D00945A
:10091C00C0F3400200F0010311A823F0E5FB8DF8B1
:10092C00180006AB65203421C2E0E81C29F07CFBE2
:10093C008DF8440011AB652044214FE100206C7808
:10094C008DF84400BC480078411E022980F0B48028
:10095C000220B5E0B74D0822E88A05F13901ADF85F
:10096C004400B64800788DF84600A88CADF84700D6
:10097C00688BADF8490011ACE01D29F0E1FE04F1E3
:10098C000F0005F11C01082229F0DAFE287E502107
:10099C00182223468DF85B00652020E16520492153
:1009AC0032462B4622F02AFD28463EE108462AF024
:1009BC0040FCADF81800687E06A929F0B9FE11A913
:1009CC0021201CF079FA8DF838000EAB652021211E
:1009DC006EE080208DF8430026780F2E10D80597F6
:1009EC00671C75004FF0000806AC45450AD007EBB4
:1009FC0008002AF01EFC24F8080008F10208F4E7AD
:100A0C0080200FE0BBF10F0F0ED811A90020CDE90B
:100A1C0002645246CDE900B104900EA8059B4946EC
:100A2C0014F094FF8DF843000DF143036520202151
:100A3C00D4E080208DF8430097F800B0BBF1100F84
:100A4C000CD87E1C4FEA4B05002406AFA54207D0FC
:100A5C0030192AF0EEFB38530234F7E780200EE011
:100A6C00BAF1100F0DD811A900204A465346CDE912
:100A7C00001BCDE902700EA8414614F0BFFF8DF8A3
:100A8C0043000DF1430365200621A7E008462AF038
:100A9C00D0FBADF81800687E06A929F049FE11A913
:100AAC0022201CF009FA8DF838000EAB65202221AB
:100ABC00012222F0A3FC95E0002840F08580042060
:100ACC0008F0F4FF83E0002049218DF8180006ABF4
:100ADC00652083E001208DF8440011AB65204A218C
:100AEC0013227CE02AF000FB044605F10D002AF0ED
:100AFC00A0FB0246691D204626F008FB8DF8440039
:100B0C0011AB6520512169E018202AF096FB0028D2
:100B1C0000F08E800446BDF84400002118222346C4
:100B2C0029F088FC0546002818BFC82519202AF092
:100B3C0084FB002872D007460130002D56D01821B6
:100B4C00FF222AF007FA5BE00EA911AD2A4618F035
:100B5C001DFE04469DF83800F0B1404904EB4400FA
:100B6C00002641F8206001EB800046609DF957009B
:100B7C00B0F1FF3F03DC05F1130023F0F9FD11ADDB
:100B8C00142128462AF04EFA0420214614222B4622
:100B9C0026F0E2FC8DF8186006AB652024211DE0E0
:100BAC00522023F019FB2648012104E0522023F0A7
:100BBC0013FB23480021017002E0522028F03EFD77
:100BCC0011AB65204D2109E001208DF8440004F0A3
:100BDC00E000202805D111AB65204021012222F034
:100BEC000DFC0024204619B0BDE8F08F31460822D8
:100BFC0029F0A6FD07F109002146102229F0A0FDDD
:100C0C006520252119223B463D7022F0F7FB384622
:100C1C0019212AF007FA38462AF00DFB002CE0D0F7
:100C2C00204618212AF0FEF920462AF004FBD8E7CA
:100C3C00C825CFE5F079002028110020D81100201C
:100C4C00F112002090860020B11200208C1100209F
:100C5C00D57902009B7F0200E155010074530020FE
:100C6C003FB202002DE9F04F99B080466FF00700BB
:100C7C00DFF8DCA80630ADF852009AF80000022824
:100C8C0014D1DFF8C808007880B9B8F8080010B1A2
:100C9C001020012101E0302000210AF0D1FA0020BF
:100CAC008DF81C0007A9522023F096FA0DF11C09AF
:100CBC0098F80810D8F804004A4610F0C5F9E8B1C5
:100CCC009DF81E609DF81F409DF82050BDF82670C1
:100CDC0029F034FF844211D127F003004FF6F8714C
:100CEC0080B288420AD0012D08D8022E06D29AF87A
:100CFC000000022808D19DF84D0028B1D3201AF02D
:100D0C008AF819B0BDE8F08FB8F82400ADF84800A7
:100D1C00B8F82E00ADF82A009DF82200D0B1D8F812
:100D2C0004109DF81D209DF83830012028F008FC97
:100D3C0008B1CF20E3E7DFF81C08C078012809D1FF
:100D4C00B8F824002AF02EF920B1417901F0E7011E
:100D5C00083141719DF8210068B1BDF82610FF20C3
:100D6C0026F086FF9DF82110E0B141F001012C2600
:100D7C008DF8211017E09DF83900002800F0EB8069
:100D8C009DF83D10FF2902D0002940F02681DFF8A4
:100D9C00C807BDF82620C18A8A4240F0278101206D
:100DAC00222607E0082601F00300012808BF46F0C0
:100DBC00110601209AF800104FF6F877012908D88F
:100DCC00B207344658BF64F07F04002808BF34468D
:100DDC0000E034469DF82200DFF87C575FFA84FB74
:100DEC0030B9E87A20B10BF02200222840F0808044
:100DFC001BF0400004901CD0012903D8A87B80076D
:100E0C0000F1D880119801780C2900F2DB800122C6
:100E1C0041F298438A401A4200F0D480032902D14F
:100E2C0040780D2805D007A822F0D8FF01283FF400
:100E3C0068AFA88CB8F8401081420AD198F84220CB
:100E4C00B8F83E10B8F8240000230093002307F0F4
:100E5C003DFD9DF82200F8B1B8F83E10B8F824001A
:100E6C0023F0E6FA002800F08F800646D8F804003C
:100E7C009DF81D10F2780844417B8A421EBF002267
:100E8C007260F1700130042126F016FC7168884202
:100E9C00FFF437AF013070609AF80000022834D2AA
:100EAC00A87B80077FF52DAF9DF84D004FF6F876A7
:100EBC0060B1BDF8280028F0FBFD002800F0078188
:100ECC00D8F80400417801F0DF0141709DF82E0044
:100EDC00002800F0DF80D8F8040081790139817195
:100EEC008DF82E1004F07F00090640F0D680D3E078
:100EFC000BF0420042287FF41CAF1198007800F0F0
:100F0C00FE0006287FF415AF72E77FF4FAAE95F871
:100F1C002600092802D004287FF4F3AE5FEA8B6028
:100F2C0000F19E80049800283FF4EBAE11989DF8D8
:100F3C0038100078042808BF022900F045810728E2
:100F4C0008BF042900F009810C2840F04D8107A846
:100F5C0015F010FAD5E6BDF8260023F0CDFC0238CA
:100F6C00DFF8F415B0FA80F0CA8A4109BDF8260002
:100F7C00904208BF023100293FD09DF81E20002A64
:100F8C0056D001F1400455E09DF84D00B8B3042053
:100F9C0027F0A4F900283FF4B4AE01464FF4B27028
:100FAC000880B8F824004880DFF8B00500781EF0FF
:100FBC0035FDA6E611980178A1F10C0212F10C0F87
:100FCC003FF62CAFE88ABDF8262082427FF496AE1D
:100FDC00BDF8280025F0E4F890E6109A9DF83C0046
:100FEC0021F0BAFD30B101200026E3E690F826008E
:100FFC000428F8D100260020DCE600241AE095F83D
:10100C006C0001287FF448AF11980078062803D1B2
:10101C00049800287FF440AFF81DBDF82A1080B268
:10102C0081423FF46EAE07A841461EF08BFF68E686
:10103C0001F1200423F060FC0138B0FA80F0400983
:10104C0044EA00069DF81E0000283FF4B2AE119849
:10105C00007828F075FD012818BF04F07E06A8E67C
:10106C0098F8420029F06EFC9DF82E00012840F003
:10107C00B480B8F82400BDF82810814240F0AD804F
:10108C00BDF8260023F038FC022804BF00208DF8A0
:10109C002E00A2E004F07F000446210702D44FF09A
:1010AC00000A34E0E1B24A0722D4C9069DF82110A7
:1010BC0028D5C1F3820212B1072A18BF013A002ABF
:1010CC0008BF044601F0E30040EA820118E0D32097
:1010DC0019F0A1FEDFF888040078002800F09F804A
:1010EC00DFF8801451F82000C0EB0010810098E06C
:1010FC009DF8210000F0E00100F0E30040EAD1018E
:10110C008DF82110D8F804004FF4805A017295F82C
:10111C002600092801D0042823D1E98ABDF826002D
:10112C0088420AD023F0E8FB022806D09DF8210063
:10113C0000F0030001287FF4E4AD9DF81E000028A8
:10114C0047D011989DF838100078042808BF022960
:10115C003AD0072848D1042946D107A818F0F6F848
:10116C00CFE5E7B214F0610F46D0F80709D0B8F814
:10117C00241007A8A94615F0E9FB002864D004F058
:10118C009F040025E7B2A00609D598F84200D8F8CC
:10119C00382029F0D7FB07A815A905F0A3FB780682
:1011AC0040F12681B8F8241007A80DF152022B4605
:1011BC000FF0C6FF00286FD0054611980078012863
:1011CC0008BF4AF0100A13E107A9002010F050FEE6
:1011DC0097E598F8420029F0B5FBD8F8382007A815
:1011EC0015A905F07FFB8CE503287FF48AAD07A8D1
:1011FC0000210FF0B1FA84E59DF81E0001285AD1A8
:10120C0011980078032849D0052854D1B8F8241037
:10121C0007A80DF1520200230FF092FF71E5D1489F
:10122C000168D1480268BDF82800904701287FF476
:10123C0068ADCE480168BDF828008847CC480168E5
:10124C00BDF8280088475CE527F0F4FB9DF82E10CC
:10125C000546BDF8280019B9B8F82410884291D079
:10126C00B9F81610814204D1BA48807800283FF4AE
:10127C0089AFB8F8241007A82A4609F021FC0028E9
:10128C0000F09B8038074AF0040ABDF8260048BFDE
:10129C00F01DADF8520075E70025A9E0BDF8260059
:1012AC0028F006FC38B1B8F8241007A80DF152024A
:1012BC0000230FF045FF9DF82E0088B324F032FD7B
:1012CC0000287FF41EAD9DF83900A0B3109A9DF84C
:1012DC003C009DF83D1021F03FFC002870D09DF89B
:1012EC003D00002875D0109929F00CFE9DF8243093
:1012FC00ADF8520011209DF823209DF821104AF0E2
:10130C00400A002B08BF0920002A18BF083000290A
:10131C0018BF0130D8F804100A5C013A0A5462E094
:10132C009DF81E0001287FF47EAE119800780328EA
:10133C003FF4E7AC77E69DF82010BDF826000029B5
:10134C00ADF8520000F0D3804020BDF8261009F112
:10135C001D0200EAC4059DF820002B4618F0B6FFCC
:10136C0038B1D8F804004AF0200A017801F03F01A6
:10137C0001709DF8390048B1BDF8261009F1200024
:10138C0022F00EFD4AF0400AADF852009DF81E0006
:10139C00012806D0BDF82810BDF82600002214F054
:1013AC00E7FDBDF82810BDF826002A4612F0EAFB2E
:1013BC00002818BF4AF0200A15E004F0DF04E0E62C
:1013CC00BDF82610BDF828000B2200231AF020FED1
:1013DC0097E4BDF82600ADF8520029F0E3FD002893
:1013EC0008BF4AF0400A27F025FB05464FF6F87671
:1013FC00B01DBDF8521080B20F1A5E4818BF2F46B0
:10140C000078012805D1F01DB8F82E1080B2814269
:10141C002FD160B2B0F1FF3F3FF773AC002F3FF418
:10142C0070ACB8F8080029F008FF00283FF469AC4C
:10143C00B8F80820D8F80410054629F081F99DF871
:10144C001E10002098F80830B8F8242016908DF85B
:10145C005410BDF8521015ACCDE9007ACDE9020458
:10146C00284610F091FC70B3284629F0E4FEFFF7F3
:10147C0048BCB8F824108142CBD0701CBDF8262093
:10148C0080B28242C5D2BDF828008142C1D029F079
:10149C0089FD0028BDD0017901390129B9D84088CE
:1014AC0001218DF85410ADF8600015AD28461FF0E1
:1014BC00B3FA0028ADD0281D1EF024F90028A8D0BE
:1014CC0022F09AFDA5E72348407800283FF419AC98
:1014DC0000208DF81870ADF81900DDF826004FEAE1
:1014EC003040059005A828F09BFFFFF70ABC390790
:1014FC003FF52AAF9DF81E1001293FF425AF0021BE
:10150C0018F0A4FE20B1407901380228FFF41CAF7A
:10151C00B8F84010BDF8520022F08AFF30B1807844
:10152C0027F078FD01380728FFF40EAFBDF828002E
:10153C0028F0BEFA18B104208DF8200004E7BDF89D
:10154C002610BDF8280002223FE700BFF112002050
:10155C0028110020F8100020F0790020928600203D
:10156C00E312002098C40200780E0020800E0020A8
:10157C007C0E0020EF1200202DE9F0438DB00546C3
:10158C0080780224252800F27380DFE810F0260012
:10159C0062012601000143018201AD00CF02CF029E
:1015AC005101C700CF02CF02CF02CF02CF02A80059
:1015BC003A01CF02CF02F2001D01F600CF02CF029A
:1015CC00CF02CF02CF02CF02CF02CF02CF02C40094
:1015DC009001930114019601A500DFF81076002408
:1015EC000E258DF804403878012807D801A81DF085
:1015FC0021FD04469DF8040005EB4005EEB2304693
:10160C0029F01BFE002800F0A0824FF000080546D0
:10161C00431C0021082280F80080012028F00AFFDA
:10162C0029F092FA6872000A0721A872DFF8C00547
:10163C00E972007828733878012800F27B829DF8D3
:10164C000420002A6A7300F0778205F10E00002155
:10165C002346914280F0708213F8022B013100F87E
:10166C00022B13F8012C00F8012C9DF80420F0E754
:10167C00A0F140010D2920D8DFE811F00E00420145
:10168C005802580226015B015802580237015001DA
:10169C007F0194015802680101ACE91C0822201D4D
:1016AC0029F04EF820461AF0D9F8BDF806000DF1D5
:1016BC002A034021ADF82A0083E0632800F08F81D3
:1016CC00642800F07F81E02840F03082002447201D
:1016DC00E0210022002327E2F52025216EE015F8F9
:1016EC00032B6720102109E100208DF80400E81C71
:1016FC0029F09FFD6A7900F4F851002A00F0BD81B1
:10170C00B1F5A06F04D04FF6FF71884240F0BF8155
:10171C004FF0FF30B9E1F5202021D0E02F79DFF830
:10172C00B454286840B901AC204629F0F6F80120E1
:10173C0021460EF053F82860DFF89C64306840B9FD
:10174C0001AC204629F0E9F8002021460EF046F8BD
:10175C003060052F02D0002F40F0DC81DFF87C04D4
:10176C0001210170286822F008FA306822F005FA8D
:10177C00D3E100246720142129E0002467201621DE
:10178C0009228DF80C40CDE9014401ABCCE1E81CF9
:10179C00042125F091FF0190842029F05BFC014687
:1017AC0001AA842029F0E4FA8DF82A000DF12A030D
:1017BC00672003216EE14FF6F5702321ADF804008C
:1017CC0001AB6720022266E1002467201521ADF8E9
:1017DC000840019401AB0622A6E1E81C29F029FD82
:1017EC00ADF80400832029F035FC014601AA8320C2
:1017FC0029F0BEFA8DF82A000DF12A036720022188
:10180C0048E1E87824F074FD8DF8040001AB672002
:10181C0011213FE1612029F01DFC0146EA1C6120E9
:10182C0029F0A6FA8DF8040001AB6720042131E100
:10183C0029F0D5FC044629F0D0FCEA49604301AC00
:10184C00B0FBF1F1204629F05BFC67200921042252
:10185C00A6E0202029F0F1FC002800F01E812021B8
:10186C00FF22044629F076FB631C0120002108228C
:10187C0028F0E0FD054601AB84200021042228F06D
:10188C00D9FD002800F06381002D18BF0125023519
:10189C0064E1622029F0DEFB0146EA1C622029F09B
:1018AC0067FA8DF8040001AB67200521F2E0F52002
:1018BC00212104E0F520222101E0F52024218DF8DE
:1018CC00040001AB6720E5E0E81C0DF12A0128F0CB
:1018DC004BF800288DF8040000F0E18001A81821D5
:1018EC00FF22013029F036FB06E115F8030F697869
:1018FC0022F076FF28806720482102222B46CAE07E
:10190C00E81C29F096FCADF8060001AC204617F057
:10191C00D9FC231D672041210822BCE0E87826F081
:10192C0003F801AC0146204618F010FE672049214F
:10193C0035E0E81C0DF12A0128F016F800288DF886
:10194C00040000F0DE804FF0FF30DCE04FF0FF30A1
:10195C0095F80380691D0190ADF81000CDE90200E7
:10196C00FE208DF80600287903288DF8320047D127
:10197C000DF12A0029F00CFC47E0EC1C204627F066
:10198C0007FC002818BF2046B5F80B1019F0F8FA20
:10199C0001AC0146204618F0D9FD67204A212422CB
:1019AC00234678E001ACE91C0822204628F0C8FE4A
:1019BC00204628F06DFC8DF82A000DF12A036720D3
:1019CC004B2167E0B5F80B006A7B0024E91C8DF80D
:1019DC00044009F0F1FC01AB67206421A3E0002472
:1019EC00E91C08228DF82A4001AD284628F0A8FEF3
:1019FC0028461DF087FE0DF12A036720632192E033
:101A0C00084629F016FCADF82A00AF7B002F00F039
:101A1C00DC807E0095F80D90304629F00EFC0028F5
:101A2C0000F0D38005F10F013246044628F088FE01
:101A3C000DF12A0140464A463B4600940CF01EFF2D
:101A4C00002800F0B88083780178427805798DF809
:101A5C0006308DF804108DF805204279C1788DF888
:101A6C0008508DF8092052008DF8071001A98B1D24
:101A7C00811D184628F064FEA4E0B1F5A06F03D0D8
:101A8C004FF6FF71884202D100205749086001AB24
:101A9C0067200621012221F0B1FC002446E0182029
:101AAC0029F0CBFB40B3BDF82A1004460090062069
:101ABC000022182325F03AFDB8B9BDF82A5001AE22
:101ACC0021461022701C28F03BFE454F05EB4505C6
:101ADC0006F1110057F8251029F012FB07EB8500D1
:101AEC00416806F1150029F00BFB2046182129F05E
:101AFC0099FA204629F09FFB01AB6720442119225B
:101B0C00C9E7BDF82A00ADF8050001AB67204521F7
:101B1C000322C0E7314800210170002467200A210C
:101B2C008DF8044001AB012221F068FC20460DB079
:101B3C00BDE8F08385F80D806720002132462B46E6
:101B4C0021F05CFC284629F076FB84BBA5E70198C4
:101B5C00002D00BAC4F8090018BF01250DF12A03A5
:101B6C0083200021022228F065FC08B1043503E033
:101B7C00BDF82A00A4F80D0004F10F036120002128
:101B8C00012228F057FC002804F1100318BF083577
:101B9C0062200021102228F04DFC0028234618BF9B
:101BAC001035672001212022257021F027FC2046CA
:101BBC0029F041FB71E74FF6FF70ADF808006FF4A8
:101BCC0080300190204629F036FB01AB67204D2177
:101BDC000E2260E71486002060860020AE120020E2
:101BEC004881002040420F00F4850020281100207D
:101BFC00D81100202DE9F04F85B084780226362CC0
:101C0C0000F2C8820546DFE814F0690194014D0129
:101C1C0080015501C502C5025E0137005F00E80076
:101C2C004101FB00C502E0009C01C502C502A601F2
:101C3C00D201C501C502C502C502C502C502C50255
:101C4C00C50237005F00C502C502C502C502C50248
:101C5C00C502C502C502C502C502C502C502C50240
:101C6C00C502C502C502C502C50270002D01E00106
:101C7C009E0049004900710129F024FA242840F003
:101C8C007D8102AB352000210422002428F0D2FBF8
:101C9C00002800F004820222012006E2DFF85485BD
:101CAC00D8F80000F8B1406AE8B102A929F019FA95
:101CBC000646342C40F0E981304629F0BAFA002867
:101CCC0000F03B8204205CE200208DF8100029F02B
:101CDC00F9F90646092C40F09B8095F8059095F88B
:101CEC00068007209DE003204BE2DFF80865012009
:101CFC008DF810003068002800F07781006900280A
:101D0C0000F0738102A929F0ECF9042125F0D4FC30
:101D1C00002800F00E82044629F08FFA002800F00B
:101D2C0067812146054629F07DF93068BDF80C1015
:101D3C0022462B4606690298B0478DF810002846BB
:101D4C0029F079FA54E1DFF8AC743868002800F017
:101D5C005381C069002800F04F8102A929F0C1F914
:101D6C009DF80850BDF80AB0BDF80C90044629F057
:101D7C0060FAA6788046F72E28BFF726B01C5FFACB
:101D8C0080FA504629F059FA002800F0D481012D30
:101D9C00044608BFBBF1000F00F002823868A11C9A
:101DAC0042463346C569029800914946A847074602
:101DBC00002840F0FB810027612033215246234646
:101DCC006670277021F01AFBF0E1002661200E21CD
:101DDC0001228DF8086002ABF6E1E878032800F2E6
:101DEC002381281D29F025FA0246E878DFF808142B
:101DFC0031F81010DFF80404007829F07EF914E1B2
:101E0C0029F076F8ADF8080002AB61200C21DAE07D
:101E1C00681D29F00EFA8146E81D29F00AFA804661
:101E2C00092002AF242E18BF2F1809EB080508BF94
:101E3C003526304629F00EF9854201D90220A0E161
:101E4C00B9F1000F04D1304641463A4624F03AF835
:101E5C00304641463A4628F08BFF002800F01881A6
:101E6C000A208EE1DFF88C432068002800F0C68041
:101E7C008069002800F0C28002A929F032F920689C
:101E8C00BDF80C10826902989047B8E0E8780328F6
:101E9C0000F2CF80D84931F81010D84800781EF0E5
:101EAC00CFF9C7E0D6480026D64B02210A2206708D
:101EBC00612089E102ACE220214627F0BFFB6120C2
:101ECC0004210822AEE029F0FDF80446681D29F033
:101EDC00B0F9242C40F0B28000201FE1E8780128F2
:101EEC0002D0002840F0558128F096F9C14C2068AA
:101EFC00002800F08A80C068002800F0868029F055
:101F0C00E1F82168C968884780E00120EC1C8DF855
:101F1C000800E220214622F05FF930B901200821A7
:101F2C00224628F025FF8DF8080002AB6120032122
:101F3C002CE140F259600121ADF8080002AB6120A0
:101F4C0041E0E878291D012800F0D680002840F0F7
:101F5C00DA80E020D4E029F0B5F80446681D29F0B9
:101F6C0068F9242C0FBF00200146204629F00BF8FD
:101F7C008DF8080002AB6120122107E18346693815
:101F8C00002680B2032838BF0126681D082C6BD1AF
:101F9C0005786CE0E8788DF8080002A9E02008F0DC
:101FAC0013FF8DF8100004AB61201421EEE029F032
:101FBC0089F824280CBF002029F04CF8ADF8080053
:101FCC0002AB612013210222E1E08A4C206808B3A5
:101FDC00806AF8B102A929F084F82068BDF80C10C9
:101FEC00826A02989047014615E003208DF8100094
:101FFC0004AB61203021C9E00327DCE003208DF81D
:10200C00100004AB61203121C0E0032028F048FF10
:10201C003621BBE0002102AC204629F071F861208A
:10202C00322104222346B2E0022028F039FF0A2193
:10203C00ACE0022028F034FF0B21A7E005F10806E4
:10204C00ED790146A84265D92046002228F08AFE87
:10205C0009288DF8080063D1002D61D0204629464F
:10206C00324628F085FE5BE029F0E3F80546584639
:10207C0028F0F0FF0227A84288BF7700EFB10026B6
:10208C008DF80870612021469AE006F1010957E0AD
:10209C00012E78D1E220394622F09EF871E00298A8
:1020AC0004220224ADF8120000208DF810008DF8E7
:1020BC00114004AB6120082169E0401B87B2F72F67
:1020CC0028BFF727B81C5FFA80F8404629F0B5F80E
:1020DC00002863D000F1020A81463946504628F0A8
:1020EC00A1FF584629463A46534628F0A3F905461F
:1020FC0000286CD00A2775E00878022814D25220E8
:10210C0022F06AF800E002208DF8080002AB612092
:10211C000F213BE02046324628F024FE8DF80800C3
:10212C0002AB6120072131E002A9522027F086FA88
:10213C00ECE705205AE710273DE006F103090236CB
:10214C009DF808003678012811D1BDF80A0070B945
:10215C00BDF80C7031464A46384623F0B3FE012FC9
:10216C0007D1E220494622F037F8012701E0BDF8FB
:10217C000C70D8F80000394632464B46456A029836
:10218C00A8478DF8100004AB61202146012221F0F4
:10219C0035F90026304605B0BDE8F08F10276EE704
:1021AC00A9F169000328BFF4F9AD0227204629F0F4
:1021BC0042F8002FEDD000268DF8087061203321F5
:1021CC008DF8096002AB022221F018F9E2E789F8D8
:1021DC00017000276120214642464B4689F8007069
:1021EC0021F00CF9484629F026F8002D7FF447AF72
:1021FC00CFE700BF70120020A8C902009086002013
:10220C00AE12002044C902002DE9F04F9DB00446E7
:10221C00DFF88C05406818B18047002800F0538225
:10222C00DFF880A5DFF880B50D940DF13C094FF077
:10223C00F8089AF80000411E002C0B910BF11804C1
:10224C0018BF0121002700258BF80F109BF80110F7
:10225C000C919BF802100E9187421FD20E98B84237
:10226C0017D0FEB200214A460423304628F030FA3B
:10227C000F9810F4403F40F00400C0B218BF013575
:10228C007C2806D130460621F82227F0A3F884F8E2
:10229C0000809AF800000C340137DDE7E9B2013810
:1022AC000024884204D19BF80500002800F07382BA
:1022BC00DDF83490DFF8E884C9F50060B9F1000F5F
:1022CC000090484608BF1020C0F50060039015AE82
:1022DC0000200290DDE90B740025380400F0F58134
:1022EC009BF80F0010B901208BF80F00E0B2002111
:1022FC000FAA042328F0ECF90F98B9F1000F19D0AC
:10230C0010F4403F18D04FF400609AF800100135DB
:10231C00013FABF810009BF80F0001388BF80F0051
:10232C00012050FA84F0B0FBF1F202FB11048BF89F
:10233C000D40D2E7002501E0CDE90B74C0B2702846
:10234C0004D00C987021C0B223F092F90E98069527
:10235C0000210FAA0423C7B2384628F0B9F99DF81A
:10236C003C00FE2803D03846FE2123F081F9384684
:10237C000621FE2227F02EF84FF400600C9D0BF185
:10238C0016010E9AABF810000020ABF81400FF20D9
:10239C008BF80C208BF80D508BF80E00E8B2400037
:1023AC0050FA85F001EB8000B0F806A0780050FAE6
:1023BC0082F001EB8004FE20ABF812A0214601F85C
:1023CC00020FDFF8E80305914FF4006128F02AFEB4
:1023DC000020DFF8D0132B46099788F800009BF8F3
:1023EC000F00097850FA85F0013890FBF1F202FBEE
:1023FC001100019034F8060F04945FFA83FB0A90E5
:10240C000C93BB4500F05981ABEB0700B0FA80F0A0
:10241C004009089000200790C00740F0A1801FFAE7
:10242C008AF4162C7ED998F80000002840F06D81B3
:10243C00AAF10707584610AAB9B218F087F9BDF8E7
:10244C004E5005F11000A0420FD89DF84A00962876
:10245C000BD1A7EB05099DF8492029465B461FFACD
:10246C0089F840461CF09CF930B3AAF1010A544695
:10247C00A0B217282ED33628A4F11605584632469A
:10248C0088BF2025641BABB2A1B228F021F9280427
:10249C00EED016FA85F010F8010C962801D0013D0B
:1024AC00F5E705EB040A0021DFF8F482DDF834903F
:1024BC0000200329B0D158E09DF84B00C10701D191
:1024CC00800709D40020CA460021DFF8D482DDF849
:1024DC003490EEE70321E7E7E81D83B20A9813FA7C
:1024EC0080F4B4F5006F02D902210120EDE7AF4969
:1024FC0080B2081A4146C01A00F50062584628F00E
:10250C00E7F807980130B4F5006F079006D14FF447
:10251C00006200210120CA460A92D6E70020CA4672
:10252C000A94D1E7079810B19F4928F03CFA01981A
:10253C00C0B2834500F0C5800C99012050FA81F09F
:10254C0098490978B0FBF1F202FB1103964903EBB1
:10255C00430001EB8000B0F81CA0DDE909704CE7EA
:10256C00079810B1904928F01EFA002008900C989A
:10257C000E9098F80000002840F0C7800A9B8B4909
:10258C00C3F5006011FA80F2A3F11000102183B2A0
:10259C00099822F059FA98F80010084388F80000BE
:1025AC00089890B17F4800780BEB0001013991FB42
:1025BC00F0F202FB1011C8B20E91400050FA81F0FB
:1025CC00794901EB8000B0F81CA0DFF8DCB10E9863
:1025DC000A99099C01238BF80E000498ABF8101093
:1025EC00BBF91220ABF814A001809BF80D1020460B
:1025FC0024F058FCBBF914209BF80E102046022343
:10260C0024F050FCBBF81000B9F1000F09D0009970
:10261C00029DDFF890A18142A2BF01250121029108
:10262C0002E0DFF880A10025039981424FF07C0184
:10263C00B8BF7821099C204623F01AF80DF004FE4F
:10264C0007469BF80F000621FC22C01B8BF80F00DD
:10265C00204626F0BFFE0599FC209BF80E30087032
:10266C0006989BF802100C9317FA80F001449AF824
:10267C000000B1FBF0F202FB10118BF802100E916E
:10268C000131CAB2B2FBF0F202FB10118BF801104F
:10269C0003EB43010BEB8101898B102906D10C99BB
:1026AC000131B1FBF0F202FB10100C900B98C01B27
:1026BC000B90E8073FF40EAE07E00120BB460890F4
:1026CC0057E7019854E7002465E07C2022F0EAFFEC
:1026DC000446FF2848D17E2022F0E4FF0446FF2860
:1026EC0042D19BF8014004EB44000BEB8000807D51
:1026FC00FF2835D09AF800009BF8021001440139EC
:10270C0091FBF0F202FB10142EE0274E254F002512
:10271C003878854213D2ECB2204615F0FFFA98F8BF
:10272C000010084388F800003DB138780138854224
:10273C0003D020467E2122F09BFF0135E8E7B18BC8
:10274C0001380024B070C0B2F4707470F180FE21B6
:10275C0022F08EFF00207C2122F08AFF74711AE097
:10276C0020467E2122F084FFE0B2FE218BF803404C
:10277C00400050FA84F00BEB8000808BABF8060025
:10278C009BF8020022F074FF00208BF80500BBF8C8
:10279C001000C0F5006420B21DB0BDE8F08F00BF82
:1027AC00840E002091860020DC750020003700206C
:1027BC002DE9F04F8DB00C4648070FD4200441D4BE
:1027CC00E00400F17E81200600F1A581A00700F154
:1027DC00B981200500F1DC810020D3E1DFF8F004A1
:1027EC000178062900F29481DFE811F007008201DC
:1027FC00920192017B0192018701DFF8E054DFF82E
:10280C00D4142A7891F82B30022A02D19E0600F1BA
:10281C007F815E0700F182819B0740F1798104235F
:10282C00037091F82C30DB0700F0728191F82E3098
:10283C00002B00F03B8226F00DFB0420012101F05F
:10284C008DFF3FE2DFF89804DFF88C54DFF88094BA
:10285C00DFF880B4DFF884A448F202080088019005
:10286C0028781DF0AFF8002800F028810646007883
:10287C00D3282DD1F089404540F00681DFF868045B
:10288C000078002800F0008199F80000012840F041
:10289C00FB8027F0A5FE002840F0F6807088002809
:1028AC0040F0F28002AF1221384628F0BBFB28F032
:1028BC00CAFA3046394618F071FABDF81400B0F572
:1028CC00285FC0F08680012002211FF0DDFDDBE0D7
:1028DC0099F80010884218D1012833D0032840F011
:1028EC00D3809AF800000138012800F2CD80B0782E
:1028FC00012850D0002840F0C7807078002800F0E4
:10290C00B38000201EF078F9BEE00A2806F1020719
:10291C000BD19BF82B003071DBF8181009B138463D
:10292C008847384626F056F8AEE0092840F0AC80CF
:10293C009AF80000002840F0A780DBF80810384611
:10294C008847A1E09AF800000138012800F29C8029
:10295C00707860B19BF833009BF8341001308BF821
:10296C003300C0B2884202D90120002153E099F80B
:10297C000100032863D0022850D0012840F0848045
:10298C00DFF864030078002840D027F029FE0028E7
:10299C007ED001203BE0707800286BD028F0D4F872
:1029AC004FF6FE71D14F884202D1F88A884206D088
:1029BC00F982ADF82010532008A921F00DFC1FF06E
:1029CC00F9F826F067F8002087F826001DF0DCFDEA
:1029DC005AE0C748006807A908AA16F0D7FE0746B0
:1029EC000198874212D29DF8300010B1FD208DF86D
:1029FC00300004203946142208AB24F0ADFDBD494B
:102A0C0007EB470001EB80000121417200208BF89D
:102A1C0032000120012101F0A1FE35E001208BF8EC
:102A2C0004004FF48060ADF8200008A818F0DCFE1C
:102A3C0028F009FAAB484FF48051026821E008AF46
:102A4C00AB2000213A461CF031FE042002978DF891
:102A5C000C0002A80FF0DAFB28F0F5F928784FF4F7
:102A6C00805141F288320DE010F03AF8DBF8140096
:102A7C0050B9ABE702204FF4805140F6B83289F8D8
:102A8C000200287828F039FB304626F09FFBE7E659
:102A9C009BF8350028B1DBF81C000028F4D08047E7
:102AAC00F2E70020002102220023ADF820000220D2
:102ABC008DF8280008A826F097FDCDE748F2040011
:102ACC005EE0864800780138012857D880480178A4
:102ADC0003294BD0012951D1417800201FF0D4FC9F
:102AEC004CE026F0B7F90420012101F037FE0FE08D
:102AFC00012001211FF0C8FC0AE0002132220170E4
:102B0C00744880F82A1074480421007828F0F5FAEB
:102B1C0024F0040036E049F2840031E00522027012
:102B2C0091F82C20920730D591F82E206ABB052203
:102B3C0002600120487000201CF01AFC022025F0D5
:102B4C00ABF8E5E765480078013801280BD8002080
:102B5C00CDE9080008A811F0C9FF20B15E48022198
:102B6C0000781BF04DFE49F2860009E081780229BD
:102B7C0004D10121817000201FF062FC49F2040095
:102B8C0024EA00000DB0BDE8F08F05200021ACE771
:102B9C0052480078002840F08680DFF838A1DAF837
:102BAC000C50002D79D002A80DF1200B01300BF147
:102BBC0004060190002D6DD0A87A18B10138A872C6
:102BCC00000646D19AF83180B8F1000F11D00020E0
:102BDC00A91C08228DF82000304627F0B1FD58467C
:102BEC0018F03CFE28B12A88BDF82200314624F0AA
:102BFC008DFAAF1C0DF11F015A46384616F0C6FD72
:102C0C008146384607A923F01AFFB8F1000F05D00A
:102C1C009DF8300040F0020002281CD1DAF80800C0
:102C2C00A0B101983946082227F08AFD0220002223
:102C3C000C238DF80800BDF81C00ADF812002648D6
:102C4C00007802A90091092120F0D5FF28461EF03A
:102C5C0035FEED68AEE7384624F06DFD9DF81F009B
:102C6C000128DBD15846142128F0DCF9214A09EB64
:102C7C00490000215B4642F8201002EB8000142230
:102C8C0041604172FF2049468DF83000042024F049
:102C9C0063FCC3E7DAF80C0028B90F484FF4006165
:102CAC0000781DF0CDFA49F6860069E7013A012A51
:102CBC0008D803220260012048701CF059FB012047
:102CCC0024F0EAFF287800287FF422AF04205DE787
:102CDC00F8850020BC0D00209986002028110020CA
:102CEC0012CA020078120020C6120020F0790020CF
:102CFC00647A0020745300202DE9F04F87B022F045
:102D0C005FF9DFF8D8148122DFF8DC74DFF8DC54CB
:102D1C00DFF8E0640A70DFF8C8140860DFF8C40458
:102D2C00FF2101700020DFF8D41438802870DFF800
:102D3C00C004C98900783070DFF8BC04006890F8D2
:102D4C0008804FF6FE70404480B2884200F24A81FF
:102D5C00DFF8ACB406F110000422DBF800100831E7
:102D6C0027F0EEFCF07CDFF89C94DFF89C34B47C0C
:102D7C00717C89F8000038881B7841EA0422C4F37E
:102D8C00011AB280043038801BB9BAF1020F00F07E
:102D9C002981BAF1030F00F0258101F0070413B16A
:102DAC00002C00F01F81DFF864E4042C9EF8001066
:102DBC0008BF002900F016813BB1DFF854341B78B2
:102DCC00862B02D1022C40F00D81930410D402F01A
:102DDC000702022A08BF00291BD0DFF83404007850
:102DEC00862805D10020744622F022F92178A646C7
:102DFC00307800284CD000294AD1012800F0F2800C
:102E0C0003283FD0022843D1B088400740F0EA8025
:102E1C003EE0DFF80C1491F88310022900F0818059
:102E2C00DBF80010012211FA80F000F1080102A871
:102E3C0027F086FC38880130388027F04FFE044696
:102E4C00DFF8CC030078862868D1DFF8E0532868D7
:102E5C0008B928F079F99DF908000021002728F01D
:102E6C0027FA296848779DF808008F77C87720469D
:102E7C0028F00AF9B18899F8000001F010011DF052
:102E8C0055FC4EE0B08800F00700032840F0AA8003
:102E9C00B088010700F1A680810402D4810500F1FD
:102EAC00A180B27CC2F38104012C00F09B809309B9
:102EBC00012B00F09780BAF1010F0FD840F00201FE
:102ECC0001F00701032909D114B93F2A40F28A8085
:102EDC0024B9D0490978002900F084804FF6FB71A1
:102EEC00BAF1020F019308EB010C1DD1DFF82C8312
:102EFC00019B18F8041018F8033003EB010A0023A7
:102F0C00402AB4FA84F238BF012352091A4043060E
:102F1C001AD4002A08BF0AF1020A19E0204628F048
:102F2C00B3F826F095FC5FE0DFF8EC82019B402AB9
:102F3C0018F8041018F8033003EB010A08D3420602
:102F4C0048BFAAF1020A03E0002A18BF4FF0020A98
:102F5C00C0F300205FFA8AF11FFA8CF30A1A707022
:102F6C009A423FDC6044F0460091401AF080703089
:102F7C0080B226F0D3FBF060A0B3702128F052F899
:102F8C000020B07098F8000018B9307900F02000DB
:102F9C002870707829784FF00008254691B30028E6
:102FAC004FF000002FD1B08800F00701032906D0A4
:102FBC000020012927D19A4991F8821019B3994818
:102FCC00007818B127F0C4F8FE2807D021F0C0FF14
:102FDC0020B925F0BFFF002800F0FD800120B07063
:102FEC00254610E027F030FA27F078FD84490024BC
:102FFC000A6813681C7112680A6028F045F807B05B
:10300C00BDE8F08F0020F16801F1700281F83650B4
:10301C004A604A657278B488F388002A8C81019CD6
:10302C000B8181F82C4099F8004008BFA046A1F80C
:10303C005830737CFF2581F84580B47C8D7303F088
:10304C00780360F38203C4F30110184408743888C1
:10305C00801A5FEA0A61388000F0B580009ADBF8CC
:10306C00001011FA80F0328102AD00F108012846FF
:10307C0027F066FB308939880844F1683880B07CC9
:10308C000A7CC0F38104C0F3011902F040089CB320
:10309C00B9F1020F06D1B8F1000F03D0B1F84020FE
:1030AC0002AD05E0BDF808200235A1F84020CA8722
:1030BC005D4FFB899A4204D04FF6FF739A4240F061
:1030CC008580032C0ED101F12E00294628F060F8E2
:1030DC00F068F91C2E3025F0EAFB002876D0B07C85
:1030EC00083509E035F8022BCA85B9898A4203D024
:1030FC004FF6FF718A4269D1402819D3B9F1020FFA
:10310C0004D154EA080108D1F16803E0F1680A7CA3
:10311C00520602D42A880235CA87C02805D3F06823
:10312C002946243028F034F802E02888F168888495
:10313C003849B088097800F0070089B1B9F1010F5E
:10314C000ED8012802D12CB101200BE0032808BFB6
:10315C00002C05D13449F268C989D28F8A4235D105
:10316C00032805D0012812D12D4890F8820070B1A7
:10317C00F0681DF0B9FD50B90020F17CB070B07C46
:10318C00C1F3011100F078000844F168087427F0CD
:10319C00B1FCC0B1F068C18F243015F047FDFF2899
:1031AC0011D127F0A1FC0138717CB0FA80F04009F4
:1031BC0001F07801B07041EA8000B17CC1F30111DB
:1031CC000844F168087406F0F1F80DE724F073FA7E
:1031DC001AF012FF08E7B07802E700BFA6860020BD
:1031EC0024860020AB860020D6840020A9860020EF
:1031FC00A8860020DC0F002068860020B810002074
:10320C00C8850020B9860020D8090020B886002087
:10321C00AE860020A38600209CC9020098C902003B
:10322C006C760020BC120020088500205C12002067
:10323C002DE9F04F95B0DFF8C8640546DFF8C4B44B
:10324C00307803288BF8000040F033810020307078
:10325C008BF800000CAC204627F0A6FF204600217E
:10326C0026F0D0FBDFF8A084CBF808008E21404676
:10327C0027F0D8FE4FF0FF30A8F81400C8F8100063
:10328C00C8F80C0023F024FE002029461EF098FEFE
:10329C000BF11001CBF80C0027F008FFDBE905025D
:1032AC00DFF86854B0FBF2F1C9B20A2928BF0A2131
:1032BC00B2F5006F88F80010297040F0F880B0EB80
:1032CC00C12FC0F0F480DBF80C00002800F0EF8078
:1032DC004FF40060DFF840644FF00009FF22A8F8BB
:1032EC000600FF2088F8032088F805900490002041
:1032FC00CDE90700CDE90500CDE909000B90FF20D1
:10330C000390CDE90100CCB2A14580F0D5805FFAE5
:10331C0089F700210DAA0423384627F0D9F9DFF8E4
:10332C00F4433846002114AAA0473846012113AAB9
:10333C00A0473846022112AAA0470D996FF06F00E2
:10334C0050FA81F2C8B20E2A06D8012303FA02F20F
:10335C0045F201131A4203D1A0F1FE02022A04D253
:10336C0042F28352B2EB914F1CD0384614F0D6FC8B
:10337C0000288BF8000040F0D980384600210DAAB7
:10338C00042327F0A5F9E34C3846002114AAA047E2
:10339C003846012113AAA0473846022112AAA04799
:1033AC000D99C8B209EB4902C24608EB8204C1F37D
:1033BC000142090AE1759DF8521004F11608FD2826
:1033CC00627688F80000217601D910212CE0BDF836
:1033DC0050104FF6FF72914226D1384600213246EA
:1033EC004FF400634FF4006B27F072F96FF0030396
:1033FC0013FA8BFB1FFA8BF031584A1C01D10328AE
:10340C00F6D801220123D7B2042F06D8CFB2FF2F52
:10341C0018BF13460132090AF5E731505BFA83F104
:10342C0098F80000DFF8DCB2A1839DF84E107028EC
:10343C00A176BDF84C10E1839DF84A10E176BDF8F9
:10344C00481021842BD07828D04624D07C280BD04F
:10345C007E2815D0FE280DD0FF2818D10798CDF85E
:10346C000890013007901EE00698CDF80C900130C2
:10347C00069018E00A98CDF8109001300A9012E0EE
:10348C000898013008901FFA89F001900BE00B9816
:10349C0001300B9007E005980130059003E0099886
:1034AC00D04601300990297809F101092BE7012058
:1034BC00307015B0BDE8F08F0B9800060BD10A9850
:1034CC00C0B2012807D80998C0B2012803D80898BF
:1034DC00C0B2012811D98E48042200240270CAB24D
:1034EC00E0B2904210D214F019FC9BF80010013499
:1034FC00084329788BF80000F1E7079AD0B2A04274
:10350C0017D1834800220270002088F8030088F845
:10351C000100481E7E2188F80200B8F81C00A8F8AB
:10352C000600002022F0A4F827F0B5FC9BF8000060
:10353C00BFE70998000625D00A98049B000603D122
:10354C00029B100600F0858071480222DDB288F8DB
:10355C0002300270581C82B2B2FBF4F202FB110072
:10356C0088F80100284614F0D9FB8BF80000284697
:10357C00FE2122F07DF8012088F805000020FEF7DE
:10358C0043FED3E70A98000604981DD00346604812
:10359C00012288F802300270C8B2591C89B2B1FB02
:1035AC00F0F202FB1010039A91B288F80100FF2987
:1035BC001DD10199FF2940F0958081B288F8030054
:1035CC00490011FA80F091E0DDE905201043000676
:1035DC003FF481AF23F050FCA0423ED30798000685
:1035EC0000F08A8027F057FC2978029BCFE748002F
:1035FC0088F8032010FA82F008EB8000818B1829E0
:10360C00A8F8061092D30739D0B20DAA89B217F0D8
:10361C009DF89DF83F004007B0D5B8F80610BDF8EE
:10362C004220002398F8030000930323891A0DAA63
:10363C00073989B206F05EFE00287FF477AFBDF83B
:10364C00401000293FF472AF9DF844001DF022FF9A
:10365C006CE723F011FCA0424ED22D4803210170DF
:10366C0023F00AFC044688F80C0000EB400008EB41
:10367C008000408BA8F80D000CF0E6FD2978204462
:10368C00B0FBF1F202FB110088F802000130C2B26B
:10369C00B2FBF1F202FB110088F801007C2022F051
:1036AC0001F8FF2812D17E2021F0FCFFFF280DD15C
:1036BC00FF2021F0F7FFFF2808D1782021F0F2FF3E
:1036CC00014698F80100FF2918BF0846C1B288F8D6
:1036DC000300490051FA80F008EB8000808BA8F8B9
:1036EC00060021E701EB410088F8031008EB80008D
:1036FC00808BA8F8060019E7054806210170FEE743
:10370C00A4120020840E0020DC750020918600207D
:10371C009D860020A9AB0200003700202DE9F8435C
:10372C0005460C46480413D4A00024D4A0075CD44E
:10373C0060057ED4200500F10481200700F137815B
:10374C00600040F1F4801AF031FA24F08044EEE08D
:10375C0027F0C4F9DFF810140F6D3FB1D7E90A1246
:10376C0002F0E04201F00A01891849D027F08CFCE4
:10377C0024F48044DBE0B948DFF8F073016841F0D1
:10378C0080010160B878012804D1042021F0F2FFF7
:10379C000020B87027F0A2F90646042027F04FFD50
:1037AC00DFF8CC130A68904219D12A7EBAB1FA68B4
:1037BC00AAB1DFF8B403806C002800F09580C168D2
:1037CC0040F603020988914206D0C06840F6040115
:1037DC000088884240F0888005F1140086E040F6AD
:1037EC00C4120860C5E9042282E008F0B1FEDFF8DB
:1037FC007803006C002840F09B8024F0020496E0D3
:10380C00D7E90A65D7E90A12AA43B143C7E90A12F4
:10381C0027F03AFCB8680028AAD056EA0500A7D0D1
:10382C00D7F808C03869B7F9301032462B46E04754
:10383C009EE727F053F9054624F098FD002800F088
:10384C00B380C948876B002F00F0AE80DFF81C8373
:10385C000420C849002288F81800C34826F097FBBA
:10386C0027F045FCC44827F00CFC26F08FFCC8F868
:10387C0010000125042088F8025022F099FD3869C7
:10388C0090F82810C8F80400490703D5436A0421AE
:10389C000022984701201CF0EDF8D8F8040045767A
:1038AC0013F002F8D8F8040081680B461A465B68DE
:1038BC004BB11E88A6F60306072EF7D805FA06F6B6
:1038CC0016F0830FF2D0537B03F0F00301335373E4
:1038DC000023FD6853602D88A5F60305012D00F229
:1038EC008880C8F810309DE005F1100020F048FBEE
:1038FC00304627F0C9FB22F073FD78B12E6A2846BA
:10390C006FF4807100224FF00073B0479648806BC3
:10391C0010B11AF04BF901E044F00204EE692846AC
:10392C00002100224FF08063B04724F0005434B1E2
:10393C00944821462830BDE8F84327F09ABCBDE8EE
:10394C00F8838A4EB078012804D1042021F012FFAC
:10395C000020B07022F044FD38B170686FF48071B3
:10396C0000224FF00073056AA847306940B126F079
:10397C000DFC32697168801A000BC8600020306140
:10398C00794D7F490022284626F001FB0220307633
:10399C00286C20B17B480221283027F06AFC1AF0F1
:1039AC0005F924F40064C2E727F0A1FB41E027F0FD
:1039BC0095F8054624F0DAFCA0B1DFF8B08198F850
:1039CC00000000070ED498F9000000280AD46846BD
:1039DC0013F04AFA08B1009820B1DFF8AC9199F8CD
:1039EC00610048B327F083FB1AF0E0F824F00804D8
:1039FC009DE7034633F8385FA5B190F8445090F832
:103A0C00456005F0F00580F8445006F0F0050135EE
:103A1C0080F8455000255360C5634587507B00F006
:103A2C00F000507355480022C2610160012025F05E
:103A3C0071F924F480647AE700260127602E0FD0F8
:103A4C0009EB0600817A31B18772407A07FA00F0EF
:103A5C00C0B221F0A9FE2036F0E700BFCC2108400F
:103A6C00032088F81800444827F00BFB27F03FFB95
:103A7C00424F3D4D0022786900207861F968F8606A
:103A8C002846424926F083FA26F080FBD8F80C1021
:103A9C00D8F82020411A02EB1130B0EB113F38BF9F
:103AAC004FF0FF3098F82410C8F8200021B1D8F856
:103ABC000810B0EBC12F20D925F03CF9B8B140F675
:103ACC000900414621F83C0F002048804A7B02F057
:103ADC00F00201324A730A7B02F0F0020A7348606A
:103AEC00F8613960B8F83E0010F4406FFAD000204D
:103AFC00C8F82000012088F824001EF019FA244888
:103B0C00002101600220002125F004F9022021F09F
:103B1C0031FE102010F06AFE98F8010020B9D8F898
:103B2C000400503027F0A1FB1A48807810B90D2002
:103B3C0010F05CFE98F8250028B1002088F82500CC
:103B4C00052021F017FE002088F818001248C8F84C
:103B5C001C000220B5F85610B5F85420914208BF4D
:103B6C00072019F09BF83FE7400C0020440A002086
:103B7C00E811002055830200407E00200010044014
:103B8C00650D0100800B0020687A00201DDC01000F
:103B9C0000000460FCC80200650A01002DE9F04F2A
:103BAC008DB084780226142C00F214820546DFE8CE
:103BBC0014F03600150015008900C700110211021F
:103BCC001102110211021102110211021102110251
:103BDC001102280066007900E100D000012095F860
:103BEC000180022C8DF8310039D1E878291D032889
:103BFC008DF82C0040F0E38009A8082226F0A0FDE7
:103C0C00E2E0E978032900F2C281281DDFE811F017
:103C1C000400BB01AA01B20119F0E2F8D1E11020B5
:103C2C008DF8240027F009FB98B10446DFF8B003A7
:103C3C0021466060E81C10F069FA8DF8240028B960
:103C4C00204624F035FC8DF8240010B1204627F0D6
:103C5C00F2FA002609AB642000210122ABE1E81C3A
:103C6C0002218DF82C1027F0E4FAADF82400002086
:103C7C00AE1DADF82E0068798DF82D00AFE0E81C74
:103C8C0027F0D7FAD54C6668002E00F00E816A79C1
:103C9C00002A00F041813368A91D184426F050FD1C
:103CAC00002003E1CD4EEC1C04212046376823F0A4
:103CBC0003FD002F00F08180B968814200F0CD80B7
:103CCC003F68F6E701208DF832000020CDF82A007D
:103CDC00ADF82E00CDF8260002208DF82C00E81C43
:103CEC0027F0A7FAADF824006979A8798DF82D1082
:103CFC0026F0A6FD8346E81D27F09BFA95F80C905C
:103D0C008046687AAC7A95F80BA04FEA49078DF893
:103D1C003100384627F091FA002800F0CA80CDE92E
:103D2C00074806464FF0000805EB080047452FD022
:103D3C000D3027F07EFA26F8080008F10208F3E7A8
:103D4C00E87821F01BFE8DF8240009AB64200421D7
:103D5C003CE10026E878ADF8246009A924F074FD54
:103D6C00BDF824000DF1320314210222ADF832000B
:103D7C00642020E1A888ADF82400E87809A925F092
:103D8C006BFC8DF832000DF13203642013211DE120
:103D9C00BBF1000F00F0DB80437B0DF131010E30E5
:103DAC00CDE90496CDE9000107985946CDE9020A00
:103DBC0009A8089A1EF016FDCAE00120F4E0084696
:103DCC0027F037FAADF82400287B8DF82D0005F18B
:103DDC000D0027F02EFAADF82E0005F10F06307805
:103DEC0026F02EFD0546701C27F023FA8146F0784C
:103DFC0096F804A096F805B0022C8DF8320008D184
:103E0C00B01D27F016FA074606F1080007F1140159
:103E1C0003E0B779F01D07F10A0135B189B2FB292E
:103E2C0005D36E4E7068002847D0022009E00DF1D2
:103E3C0032018DE8030C09A84A463B46294603F09B
:103E4C008DFC8DF8310008F0E000202840F0C18096
:103E5C000DF1310364202146B8E0EC1D204627F01B
:103E6C00E8F96D7A002D00F0948005F10209824684
:103E7C00484627F0E2F9002800F0958000264570AE
:103E8C0080462A460670786800EB0A0108F10200A9
:103E9C0026F056FC5FFA89F26420122143461FF08B
:103EAC00ADFA404627F0C7F994E010208DF82400B5
:103EBC0049E010208DF832004FE007F11C0027F08C
:103ECC00BCF90028706079D000F11C010C22016053
:103EDC0000208DF83100706809A9043026F030FC00
:103EEC0070680F214FF47A720561C1769DF832101B
:103EFC003B4DC782A0F8149080F81AB080F819A036
:103F0C0001762878082127F0F8F800289BD028782B
:103F1C0008211AF075FC96E7D6F800C0F38AB28A2D
:103F2C003169757EB77E06F11800CDE900C0301DF1
:103F3C00CDE9025703F012FC8DF82400606827F0DD
:103F4C007AF90020606009AB642011213EE0022068
:103F5C008DF83200304627F06EF90DF132036420F3
:103F6C00032133E0007826F06BFC48B326F040F9CF
:103F7C00002026E027F05DF9A97926F063FEB0FA5F
:103F8C0080F040091DE000781BF0C4F919E0022014
:103F9C0017E03068B84201D138683060384627F0F5
:103FAC004AF9002000E01020002620706420122125
:103FBC000222234666701FF021FA0BE0102040E726
:103FCC0001208DF8240009AB6420102101221FF080
:103FDC0015FA002630460DB0BDE8F08F6C110020AC
:103FEC00908600202DE9F04F8FB00C4608040CD4BD
:103FFC00A00426D4DFF88853287802282DD1E107B5
:10400C0040F00381A10641D558E0DFF86C0300783D
:10401C001BF0D8FC90B10178DFF860230546002036
:10402C00602808D0135C08308B42F9D1104450F84A
:10403C00041C28468847284625F0C8F884F4004517
:10404C0095E11EF0D5FA28B10546FCF70BFE284683
:10405C0025F0BCF884F4005589E1A1062ED4012882
:10406C0014D8E10600F11781610600F12F812106B9
:10407C0000F13D81E10500F13F81210500F1418115
:10408C00E10400F15481610400F15B81A10700F1AE
:10409C00E280A10500F1FA80210700F11181610590
:1040AC0000F11981E0034FF0000540F160811CF034
:1040BC00DBFCB648C57084F4803558E1AE4F202146
:1040CC0038781FF03FFFDFF8C4824FF00109D8F8B1
:1040DC000810084317D027F082F8054627F07DF822
:1040EC0068434FF47A71B0FBF1F0D8F80810401A1D
:1040FC004FEA500938BF6FF000490025002964D001
:10410C00B9F1000F61D000200421002223F08CFEB5
:10411C0006464FF0060A4FF0FF0B4FF6FF7802AD44
:10412C00002E4ED0304604210022374623F07CFE70
:10413C0006463889B0EB090038BF002038810004EE
:10414C00EED1B87BD0B301280AD17889400707D4C7
:10415C00386887F80DA0B721407B1EF001FADFE725
:10416C0039682A468DF806B0ADF80480086AC97F14
:10417C000CF06AFF01281BD1B87BB97A8DF8380096
:10418C000907788A40F08002ADF8362006D540F455
:10419C00C070ADF83600387B8DF83A00786910B1F4
:1041AC00007BADF81800284601A9002202F09AFB0A
:1041BC00387B87F80DA016F089F9B1E701207873E8
:1041CC00AEE7DFF8C8816C4F4D4623F052FF00205C
:1041DC000121002223F028FE18B1387820211AF092
:1041EC000FFB002004210022002623F01DFE0028D6
:1041FC0047D006890421002223F016FEA0B1B1B2EB
:10420C000689B14238BF0E46F4E7644890F82C108A
:10421C000F2906D190F82600022802D3002022F0A4
:10422C0067F884F00105A2E0A8B2B1B2814223D9AB
:10423C00D6FA55F0202180B24200387826F05DFF86
:10424C0026F0CDFF054626F0C8FF68434FF47A717F
:10425C00B0FBF1F615E05248007808B302AD2846E1
:10426C0026F0B0FE26F05EFC4E490B784E490A78DB
:10427C0029461BF0F7FA20E0387820211AF0C0FA12
:10428C000026C8F8086084F0200570E015F01AFECE
:10429C0084F400756BE007F0BFFC84F0100566E059
:1042AC003E48418B012026F0BCFF2878022804D11F
:1042BC003148012100781BF0C3FF84F0020556E061
:1042CC003248012184F00805817050E00BF030FE7B
:1042DC0084F040054BE0022808BF16F077F82F4811
:1042EC000121808C26F08FFF84F480653FE025F05F
:1042FC0033FC84F080053AE023F08EFB84F4807567
:10430C0035E01BF0F1FF2048007801280CD11D4846
:10431C00007848B14FF47A7100FB01F216484FF463
:10432C000061007826F0E6FE84F400651FE0174873
:10433C00017819B1002101701BF0D6FF84F480556F
:10434C0015E01448006880B11149097801290CD195
:10435C0080471148006800B1804707484FF48041FE
:10436C004FF47A72007826F0C5FE84F48045284616
:10437C000FB0BDE8F08F00BF92860020D8C20200BB
:10438C0028110020D8120020D9120020F81000208B
:10439C00D6120020680E0020740E0020F079002048
:1043AC00B3120020DC120020DE1200202DE9FE4F9B
:1043BC008846080426D45FEAC87004BF0020BDE814
:1043CC00FE8FE548056826F00AFF044626F005FF37
:1043DC0060434FF47A714FF6FF72B0FBF1F14FF678
:1043EC00FF70002D00F01A812B886C88CB1A9BB2C1
:1043FC009C4240F21C81E31A94B2A342B8BF1A4605
:10440C00ED68EEE7DFF840A3CDF804809AF80000E1
:10441C001BF0D8FA002800F0FC8006460078012832
:10442C0040F0EC80DAF8041096F83390D6F814B01B
:10443C0096F8138021B148468847002840F0DE806A
:10444C00718896F83100022223F032FA05460028D2
:10445C0042D0287A297CA0F10108FF2900F0BB800A
:10446C00707F4F46C00718BF0027E97C287D0144A8
:10447C00B94204D8E974FF2101FA00F06874A96903
:10448C00A87C96F83020896A10FB0710F16A26F098
:10449C0057F9287D697CB7FBF0F202FB1070012202
:1044AC008240D2B20A436A74C8457CD196F8301067
:1044BC00AB7C13FB0713A9698B844FF4FF7303FACE
:1044CC0000F0C0B21043FF2868746CD1287C1BF03C
:1044DC00A5FAFF2028747FE0707FC00700F08E8063
:1044EC00B07F26F0ADF9002800F0888004461C202F
:1044FC0026F0A3FE002800F081801C21054626F042
:10450C0091FDB07F02A924F09FF99DF809000221CA
:10451C002875284624F0FEF9708896F8312096F814
:10452C00301096F83330A880287DEA71FF2202FA09
:10453C0000F0687460680078A9742874302013FB4C
:10454C00010080B223F0CAFE0028A8615DD00446A9
:10455C001A20B11C2060708CA080A01D25F08AF858
:10456C00F27F04F13000B17F96F82830C4F81CB00B
:10457C0084F81980A062307CE273744A21756375EB
:10458C000121A075928C2282F28EA285F28C62821D
:10459C00B6F81100A4F817009AF8000085F80890F6
:1045AC001AF02EF955E726F01AFE044626F015FEF1
:1045BC0060434FF47A71B0FBF1F065492880634891
:1045CC00097800794843642148436249097800FB23
:1045DC000100688000E04F46E87C297D6A7C01443C
:1045EC000139B94218BFFF2A0CD186F83300708804
:1045FC0006F11C0186F8342017F080F8304624F0C0
:10460C00E5FD03E7C845F9D1EFE7284624F092F918
:10461C00F4E7019880F40040BDE8FE8F92B282422C
:10462C004BD049480121007826F067FD45E0A87978
:10463C00022806D1287CFF2837D0A86924F0C6FDB3
:10464C0033E026F0CCFD044626F0C7FD60434FF462
:10465C007A71B0FBF1F03F49288095F83800097861
:10466C0088421BD295F83620FF2A06D195F83720C0
:10467C00013085F8380085F8362095F8351095F816
:10468C00394082F0FF0300200126C7B2A7421DD299
:10469C0006FA07F71F4214D10130F6E7EA8BA87E21
:1046AC0095F82A10E9231FF0D3FD284624F042F98F
:1046BC002548012100781AF0A3F888F00100BDE824
:1046CC00FE8FFBB201441A4385F83620AB8F95F868
:1046DC003440C8B204FB10339EB2A64203D2FF2270
:1046EC0085F8362002E0FF2A08D12346184A174ED7
:1046FC001278367972436426724302E095F83A20B8
:10470C0023466A802A8D0E0606D022F020024443EE
:10471C002A852A6C224404E042F020012A6C298567
:10472C00297A85F82E10E9796A6285F82D10D9B2AC
:10473C0069840549496811B188470028B8D105F149
:10474C00100004F097FAB3E74C110020F079002028
:10475C00CC120020D2120020D46000207FB501388A
:10476C00072800F24E810C46DFE810F008005000DC
:10477C009F00B900D4004B012C007800CC48007885
:10478C000138012800F23D81002C00F04A81002004
:10479C00032100241FF078FFC74DC84E04200421CC
:1047AC0032222870307826F0A8FC0820002106F070
:1047BC0047FD30786C704FF4805104B0BDE8704008
:1047CC001BF03EBDBA4D00208DF80E00002C287851
:1047DC0000F0BD8018B9092024F0ECFA28780228E2
:1047EC0006D10820002106F02BFD042024F0E2FA6B
:1047FC0011F054F8B0480021C8220170AD480D21C9
:10480C0080F82A10AD4826F0F5FBB9E00020002511
:10481C0026F046F8AA480121017004208DF80E00FC
:10482C0074B1A448A24C45852078012803D10720F7
:10483C0024F0C0FA2078022802D1062024F0BAFA1B
:10484C009D480421322205709C48007826F055FCC6
:10485C00984890F82B1001F0FE01D0E005208DF85F
:10486C000E0093480078022840F0CB80002C00F01A
:10487C00F28091480022C178C270017042F20800A7
:10488C00002106F0DDFC8B480D2190F82B2080F8E0
:10489C002A10C17802F0DF02002980F82B200CBF0F
:1048AC0004200D2024F086FAABE081480078013812
:1048BC00012800F2A680814804213222007826F0DB
:1048CC001CFC002C00F0D0807A4C7B48012101703C
:1048DC002069002800F0A48020F05AFAF8E70120A3
:1048EC00002C8DF80E0051D072480021764A80F8C9
:1048FC002A10744826F07CF96D4C2078012803D1DD
:10490C00072024F057FA2078022846D1062024F0FC
:10491C0051FA42E002208DF80E006648002C49D076
:10492C000021694A80F82A10664826F061F90020B7
:10493C0003211FF0A9FE5E4C2078012803D107202B
:10494C0024F038FA207800284DD1092049E0594C40
:10495C00022812D194F82E0078B194F82B00002183
:10496C0040F0200084F82B0005208DF80E00082064
:10497C0006F066FC0A2024F01DFA022084F82A00B6
:10498C004C4890F82B1001F0EF0138E048480078C3
:10499C0018B94848022180F82A10474800213222D1
:1049AC000170464826F026FB424890F82B1001F087
:1049BC00FD0124E0082180F82A103D4909780129DD
:1049CC0011D890F82E0070B900200DF10B018DF864
:1049DC000B0052201FF000FC25F0A0FC1FF03AFA4F
:1049EC00002024F0E7F934480021322201703348CA
:1049FC0026F000FB2F4890F82B1001F0FB0180F8FB
:104A0C002B102C480DF10D010022032390F82A00E5
:104A1C008DF80D002948007800910A211FF0EBF861
:104A2C007FBD244C0720254D4FF4805184F82A007B
:104A3C0001208DF80E0028781BF002FC00200026C7
:104A4C0023F03EF92878022141F2883284F82B6059
:104A5C0026F053FBD5E71748022180F82A1090F86E
:104A6C002B1041F02001CAE7124C022000218DF8D6
:104A7C000C1084F82A001048017094F82B0000F0F8
:104A8C00FD0084F82B0001208DF80E0003A95220A4
:104A9C001FF0A2FB25F042FC1FF0DCF9002024F0F3
:104AAC0089F920690028ACD020F072F9F9E700BF31
:104ABC0028110020BC0D0020F885002099860020CC
:104ACC00C9120020F07900209E12002092B0DFF86D
:104ADC00F892D9F8000010B1002180F84510483048
:104AEC0023F052F925F0FAFF8046072010F05CF80D
:104AFC0018F00AF910B1B54826F07CF91BF012F841
:104B0C0001AD284625F07CFE0427002029468DF8AF
:104B1C00047025F07DFEDFF8B8A2AE4ECAF8000096
:104B2C003068006880473068C1680AAD28468847FD
:104B3C0030688DF828702946426800209047A64CB2
:104B4C0020603068C06980473068816A06AD2846AD
:104B5C00884730688DF818702946026A0020904703
:104B6C0021689E4D286019B99D4826F043F92868A4
:104B7C0010B99C4826F03EF9DAF8000010B99A48B2
:104B8C0026F038F920F0C6FED9F800004FF0FF34BB
:104B9C0038B1CDE9104410A9082224F029FC0128D1
:104BAC001BD1CDE91044082026F047FB002846D045
:104BBC0005460026052E04D826F09AF9A85302368D
:104BCC00F8E74FF6300029460822E880874825F0A0
:104BDC00B7FD284626F02FFB09E0D9F80010CDE9E7
:104BEC0010440029DFD08148082225F0A9FD10AA25
:104BFC000120082126F0B6F8092800D0D8B922F0F7
:104C0C0042FE800712D4CDE91044CDE90E440EAB20
:104C1C0001200021082225F00DFC60B90EA810A976
:104C2C00082224F0E5FB002800F0C8806F4A012020
:104C3C00082126F09DF86D49E2201FF0CDFA12F004
:104C4C0055FE282026F0F9FA694E0028306052D023
:104C5C00684F694C07F10C0526F0C8F925F0F0FCFB
:104C6C003068056007F1100526F0C0F926F044F80D
:104C7C003068456007F1140526F0B8F91CF0C0FF48
:104C8C003068856007F1180526F0B0F91AF0A4F920
:104C9C003068C56007F11C0526F0A8F920F062FB0E
:104CAC003068056107F1200526F0A0F91FF086F9A0
:104CBC003068456107F1240526F098F91DF090FF46
:104CCC003068856107F1280526F090F924F0E0FFA3
:104CDC003068C56107F12C0526F088F921F0D0FC6D
:104CEC003068056207F1300526F080F9387025F040
:104CFC00E3FA3068456219F047FA404840494FF0F2
:104D0C000009CDF8409001603E480321119010A895
:104D1C0021F0D6FA25F08DFE404626F0B5F918F0B4
:104D2C00E5FB26F012F9012021F07AFC1FF072FA53
:104D3C0036480078022808D133480078012804D17D
:104D4C004FF40040012106F07BFA2A4F4FF48041CA
:104D5C00387825F059FF2E484FF0FF3100680DF0E0
:104D6C001DFCDFF8B08078684FF0FF310DF016FCB9
:104D7C003068002550F82510096821B9691C092DE7
:104D8C000D46F7D3EFE726F0AEF8316851F8251051
:104D9C000C68C1F8009026F0B9F958F825200020CD
:104DAC0021469047044626F09EF8316851F82510AC
:104DBC000A6822430A6026F0A9F9D4E70B480EA929
:104DCC00082225F0BDFC36E77012002014C6020044
:104DDC00E085002014120020E4850020E8850020E6
:104DEC00CFC70200BCC7020006C80200B085002075
:104DFC005C860020980C002019570200800E0020C1
:104E0C003DCC0100008D1500F1120020281100206E
:104E1C003886002024C502002DE9F04F89B08A465F
:104E2C0008040DD45FEACA7040F01E815FEA8A70F4
:104E3C0000F12C815FEA0A7000F13481002045E119
:104E4C00A44F38781AF0BEFDDFF89092A74DA24C13
:104E5C0006464FF0000B48F21508002E00F00181B9
:104E6C003078312852D0322838D0D32840F0B48052
:104E7C00F089404574D0382840F0AE80CDF820B091
:104E8C00CDE906BB304606A921F03AFB9DF81C1073
:104E9C00052969D8307B002840F09E809DF81D00C4
:104EAC00002800F09980052800F29680069825F0DD
:104EBC008FF8002840F09080707C8949AC4678705F
:104ECC00708808809DF81D00214601388DF81D0062
:104EDC0006A890E82C002CC165467DE06079FF287F
:104EEC0027D0002016F01CFB0246B9F87010787819
:104EFC003346CDF800B013F041F8607900286BD040
:104F0C0038780821322226F0F8F865E0B8780328C2
:104F1C0062D899F82E10284625F05AF800285BD153
:104F2C00FF207149607170880880B0886D490880D5
:104F3C0052E099F81810706820FA01F2D2071ABFE3
:104F4C003144097A002100221B2A43D020FA02F3B3
:104F5C00DB0703D0B3181B7A99421ED80132F3E752
:104F6C00304622F021FE37E0FF293DD0FE2956D1F4
:104F7C0099F872109DF81E00884202D860BBFF2978
:104F8C002AD11DF0D9FC069900201B2859D021FAF2
:104F9C0000F2D20756D10130F7E7B9F86E0050494C
:104FAC00334608804F4802884F48018810200090F3
:104FBC00002012F0E3FF0120F870B87840B93C20D3
:104FCC0002214EF66022B880387826F096F8B87830
:104FDC000130B87084F805B0304624F0F7F8387812
:104FEC001AF0F0FC064638E799F872109DF81E008E
:104FFC00884203D80028EFD1FF29EDD11DF09CFC8D
:10500C00069838B1D9F82810814203D0C9F8280085
:10501C0023F0E0FEBDF8200024F06AFEDCE7307BD4
:10502C000028D9D170882E49802200230880707CFA
:10503C00CDE900BBCDE902BBCDE904BB11F0EEF923
:10504C00CAE71B2099F81820C1B28A42C4D028495B
:10505C00087099F80700642100FB01F238780121EF
:10506C0051E72AF4004031E021491C4C08782076A5
:10507C00E1201FF0B1F823F0ADFE0020A4F8700081
:10508C00012016F04DFA48F201001DE0114881880C
:10509C00B1B101394EF6602281800078022126F0F0
:1050AC002CF80FE00C4C607938B12179206824F091
:1050BC008FFF10B960790138607148F20B0003E082
:1050CC000021817048F203002AEA000009B0BDE813
:1050DC00F08F00BFF00F002054850020F0790020E5
:1050EC00828500208E8200209E7D002000F8FF0724
:1050FC00958600202DE9F04F85B08846080418D419
:10510C00AA480078012802D85FEAC87156D15FEA34
:10511C0088714DD4022807D1A5480078012803D105
:10512C005FEA487000F18A805FEA087059D4002069
:10513C002DE1DFF860A29AF800001AF043FC002879
:10514C0000F023810546807FD0B9688C132817D1D5
:10515C00DFF844926E880021D9F81C000F1D00293D
:10516C0008BF09F11C0758B101884468B14204D149
:10517C003C6026F060F82046F5E701462046EDE756
:10518C00A87A05F1020B022840F0E580DFF80892BE
:10519C0095F83170BBF8006009F11C000068A0B1F3
:1051AC000188B14202D18178B94243D00430F5E78D
:1051BC0079480121017088F00200E8E076484069E6
:1051CC0000B1804788F00100E1E0D9F81C0000280C
:1051DC0058D0012204464068114601320028F9D10A
:1051EC0052E07048DFF8B091807BD9F81C60000762
:1051FC0060D425F0F4FF044625F0EFFF6A4A6043C3
:10520C004FF47A71B0FBF1F0D9F818101288411AEA
:10521C0091427AD3B1FBF2FB0BFB02F2511A084418
:10522C005E49C9F818001FFA8BF00978884288BFCC
:10523C008B4641E059490978C170A3E05E495D484D
:10524C0000224FF6FE7300240978023079B130F851
:10525C00025C9D4208D04588013D45802D0406BF67
:10526C00027020F8023C012401390630EEE734B11B
:10527C00484804214FF4FA72007825F03EFF88F07C
:10528C00040084E000240021454889B20088814252
:10529C0061D2082025F0D1FF00285CD000210680C7
:1052AC00877041603D490978C170D9F81C1079B3F9
:1052BC0060603FE04FF0010B00205FFA8BF44FF081
:1052CC00000A071D002808BF09F11C0796B1F078E9
:1052DC00C0FA5BF1A042F17006D8756830463D60AB
:1052EC0025F0A9FF2E46F1E7716830460AF1010A54
:1052FC000E46E6E75FEA0A4007D100200821C9F80C
:10530C001800244800781AF09BFF88F008003EE053
:10531C00C9F81C002348807B00070BD425F05FFFE5
:10532C00044625F05AFF60434FF47A71B0FBF1F05C
:10533C00C9F818001B48807B00070CD59AF80000B0
:10534C0008211EF0FFFD30B91748082102889AF891
:10535C00000025F0CFFE2878022810D0012811D1AA
:10536C00297EAA89EB7C05F11C006C696E7E8DE8A8
:10537C005A0005F11003594604F0DEF902E0284604
:10538C0015F04AFD284623F021FF88F4004005B0B3
:10539C00BDE8F08F8F860020F00E0020D112002087
:1053AC0098120020F07900209C1200202811002077
:1053BC00F11200205C6A0020AD1200202DE9F04FA4
:1053CC0087B0851C8346284625F058FE01AC06465E
:1053DC001821204625F026FE9BF801A004F10B00B5
:1053EC002946009525F0D4FE6FF001009BF80A10B9
:1053FC0002240122ADF8180000208DF81A408DF817
:10540C000C0001F00800C1F3C007890782EAD0053F
:10541C0007D40028B946A84608BF01240027002558
:10542C0007E004244FF000094FF00008002808BFE3
:10543C0003248548007850EA0A000BD0834890F882
:10544C002600082809D125F0CBF800285AD0BAF14B
:10545C00010F57D14FF0C30901E04FF0C2090025ED
:10546C00BAF1000F10D07F48007890B9BAF1010F53
:10547C000FD1002E63D00020214601228DF81A0096
:10548C0001A814F023FE0AE001A81DF093FE86B9D2
:10549C001CE001A82146524614F018FEB6B17179F1
:1054AC00BAF1020F41F04002727104BF41F0600189
:1054BC0071719BF80A10490603D5717941F080018E
:1054CC007171B17900240131B17100E00124B0FA9D
:1054DC0080F149090D423AD107D1002D18BF814600
:1054EC0041F20100494624F09AFA14B900981AF0D6
:1054FC0009F9BDF818004FF6FE71884218BF25F067
:10550C00AEFE24E0DEB33279A24218BFBAF1020F2C
:10551C0020D1D01EC0B2012802D857EA050006D10E
:10552C00501EC0B2012822D859EA08011FD0308879
:10553C0022F052FC20BB3088ADF8180022E002208B
:10554C00214601228DF81A0001A814F0BFFD07B006
:10555C00BDE8F08F4FF00009009953468DF81A9072
:10556C003088ADF8180025F050FE012578E70128A9
:10557C0002D8308825F073FE00981AF0C3F8002684
:10558C00BDF818004FF6FE7188421ED122F0B8F912
:10559C0010B1BDF8180011E0BAF1000F04D02C4D79
:1055AC00288822F019FC30B19BF80A0000F00200A8
:1055BC0020F02EFF00E02888ADF818004FF6FE71A1
:1055CC00884202D14FF0C70949E79BF80A2000999D
:1055DC00534625F01AFE10B14FF001093FE71D4864
:1055EC00016811B1BDF818008847BDF81800009982
:1055FC00224605F0E1FE0646174818490A6800786D
:10560C004FF4803125F079FD01211548C17096B118
:10561C00AAF10100C0B2012807D81020BAF1020F7C
:10562C0008BF08207179084370714FF000090125FB
:10563C008DF81A9014E74FF6FE7000254FF0010913
:10564C000026ADF818000BE728100020F079002098
:10565C008C1200207C0E00209286002000CA0200D2
:10566C00F8100020281100202DE9F04F87B00024FD
:10567C000293002A00F03A81074603A892460E4690
:10568C004FF0200B10300190504610F8011B2529CB
:10569C000CD0002900F02781022EC0F0D680013EEC
:1056AC00002F00F0D18007F8011BCEE09AF8010022
:1056BC002D2806D19AF802000AF103034FF0010CD1
:1056CC0003E00AF102034FF0000C30280CBF13F872
:1056DC00011B01462A2920D1029D2A68111D29602F
:1056EC00D2F8009013F8011BB9F1FF3FDCBFC9F1F0
:1056FC0000094FF0010C2E291ED11A4612F8011B7D
:10570C002A291CD1029D2A68111D29609D1C126832
:10571C0059782B4622EAE27821E04FF00009A1F1FA
:10572C003002092AE7D809EB890201EB4201A1F109
:10573C00300913F8011BF2E74FF0FF380FE04FF080
:10574C000008A1F13003092B08D808EB880301EB02
:10575C004301A1F1300812F8011BF2E7134630287F
:10576C004FF0000241F0200008BF4A466C2808BFE9
:10577C0013F8011B9A46692901D0642909D1029BAF
:10578C001868011D196090456FF00903C8BF4246A7
:10579C001BE075290AD0A1F16F00092858D8DFE861
:1057AC0000F005695F5F835F5F5F5F05029D28689E
:1057BC00031D2B6090454FF00803C8BF4246782963
:1057CC0008BF1023752908BF0A23DDF8048001687F
:1057DC004046654617F00EF8AC460546A8EB0001AE
:1057EC00A9EB0100BCF1000F0DD109E0022E05D38D
:1057FC00013E17B107F801BB00E000270138013466
:10580C000128F3DA01380A465AB1022E06D3013EBA
:10581C001FB12B7807F8013B00E00027013A013556
:10582C00F2E70C44BCF1000F3FF42EAF0128FFF659
:10583C002BAF022E05D3013E17B107F801BB00E0D8
:10584C00002701380134F1E70027013482461BE7B9
:10585C00632905D1029A1068011D1160006804E0EB
:10586C00AAF10100022E3AD300788DF80C00012128
:10587C0003ADB5E7029ADDF804801023CDF800C023
:10588C001068011D1160109908220029016840461A
:10589C0016F0B0FF05464FF04000DDF800C005F8EB
:1058AC00010DA8EB05019BE7029ACDF800C010682A
:1058BC00011D1160109905680E480029002D08BFC4
:1058CC000546284625F0C3F88045014638BF4146B9
:1058DC0018F1010208BF0146DDF800C080E7002185
:1058EC0003AD82467CE70FB100203870204607B02C
:1058FC00BDE8F08FD0C902002DE9F04F8DB00646FF
:10590C00806A447874B18D4909788C4280F0128198
:10591C008B49023022462AB130F8023B013A21F879
:10592C00023BF8E78748C18A708988422FD18348A7
:10593C000078A04240F2FE80B589814A2146284673
:10594C0023F044FE284617F001FD064682480778EE
:10595C00BE4204D14FF6FE7017F0F8FC0646BE426C
:10596C0080F0E880DFF8F48108EBC6094F4657F861
:10597C00040F08B125F05FFC002C00F0B180600032
:10598C0025F05BFC0028386040F0AC80D2E0B27CA3
:10599C00002A00F0CF806A4F0025AC4205D037F8C2
:1059AC0015208A4203D00135F7E7A04600E0A8464F
:1059BC00002114F04BFC002800F0AD8081464079AA
:1059CC00012840F0A88099F8060010F0180F00F09C
:1059DC00A280B9F80210204623F02CFFA54202D376
:1059EC00002800F098805848CDE90498B6F80C903F
:1059FC004FF6FE7A00780890544800780A90002000
:105A0C0006960B905248113009905248043007907A
:105A1C0000200C90DDE909564FF0000BF6B135F87B
:105A2C00117C574518BF4F4502D1013E1C35F5E797
:105A3C002046394623F0FEFE0028F6D1287801389E
:105A4C000528F2D80C980BF1010BC007EDD00B9880
:105A5C005FFA8BF1C0B28142E7D356E0DDE90786ED
:105A6C002EB338F8047C574518BF4F4503D1013E7F
:105A7C0008F12408F4E72046394623F0DBFE002821
:105A8C00F5D198F8050001380528F0D898F80000F1
:105A9C0001380228EBD30C980BF1010BC007E6D0B0
:105AAC000B985FFA8BF1C0B28142E0D32DE05FEA34
:105ABC000B6028D00B98000625D101205FFA8BF5DE
:105ACC000B90012D4FF001000C90A3D025F010FA93
